:020000040800F2
:1000000000500020D11F0008210800082308000824
:10001000250800082708000829080008000000003B
:100020000000000000000000000000002B08000895
:100030002D080008000000002F0800083108000803
:1000400019200008192000081920000819200008AC
:10005000192000081920000819200008192000089C
:10006000192000081920000819200008192000088C
:100070003908000819200008192000081920000874
:10008000192000081920000819200008192000086C
:10009000192000081920000819200008192000085C
:1000A0001920000819200008490800081920000834
:1000B000192000081920000819200008192000083C
:1000C000192000081920000819200008192000082C
:1000D000192000081920000819200008192000081C
:1000E000192000081920000819200008000000004D
:1000F0000000000000000000000000000000000000
:0C01000000000000000000005FF808F1A3
:10010C0010B5054C237833B9044B13B10448AFF345
:10011C0000800123237010BD70000020000000003F
:10012C001030000808B5034B1BB103490348AFF36B
:10013C00008008BD00000000740000201030000892
:10014C0070B50024184B1C70184B1B685C63184E60
:10015C0022464FF48071304601F0BCFC224640210F
:10016C00304601F0B7FC134D22461021284601F011
:10017C00B1FC22460421284601F0ACFC22460221A7
:10018C00284601F0A7FC22464FF48061304601F06E
:10019C00A1FC22460221304601F09CFC2246202183
:1001AC00284601F097FC70BD5C0100201401002072
:1001BC00000C0140000801402DE9F04188B00024FA
:1001CC000494059406940794204B9A6942F02002FB
:1001DC009A619A6902F020020192019A9A6942F09E
:1001EC0004029A619A6902F004020292029A9A69D4
:1001FC0042F008029A619B6903F008030393039B86
:10020C00DFF84C8022463621404601F063FC114D4C
:10021C00224640F24251284601F05CFC36230493FE
:10022C000127059706940226079604A9404601F07B
:10023C0043FB40F24253049305970694079604A996
:10024C00284601F039FB08B0BDE8F08100100240EF
:10025C0000080140000C014000B583B00A4B5A69FC
:10026C0042F001025A615B6903F001030193019BA7
:10027C00002211460C2001F051FD0C2001F05EFD16
:10028C0003B05DF804FB00BF0010024038B5044613
:10029C00831C442B00F2C481DFE813F0C501C201BA
:1002AC00450070008300A900CF00EE0014013F014F
:1002BC0059018901C201C201C201C201C201C201BC
:1002CC00C201C201C201C201C201C201C201C2010A
:1002DC00C201C201C201C201C201C201C201C201FA
:1002EC00C201C201C201C201C201C201C201C201EA
:1002FC00C201C201C201C201C201C201C201C201DA
:10030C00C201C201C201C201C201C201C201C201C9
:10031C00C201C201C201C201C301C201C201C201B8
:10032C00C201C201C001FFF70BFFC34B1A68642363
:10033C0004FB03F35363C14C01224FF4807120463C
:10034C0001F0C8FB01224FF48061204601F0C2FB92
:10035C00BB4D01220221284601F0BCFB01220421E5
:10036C00284601F0B7FB01221021284601F0B2FB10
:10037C0001224021204601F0ADFB51E1FFF7E0FEE8
:10038C00AD4B1A68642304FB03F353630122402131
:10039C00AA4801F09FFB01221021A94801F09AFB09
:1003AC003EE1FFF7CDFEA44B1A68642304FB03F374
:1003BC005363A24C01224FF48071204601F08AFB5A
:1003CC0001224021204601F085FB0122022120461A
:1003DC0001F080FBA4F5806401220221204601F08B
:1003EC0079FB01220421204601F074FB18E1FFF790
:1003FC00A7FE914B1A68642304FB03F353638F4CE1
:10040C0001224FF48071204601F064FB012240214F
:10041C00204601F05FFB01220221204601F05AFB2D
:10042C00A4F5806401221021204601F053FB012227
:10043C000421204601F04EFBF2E0FFF781FE7E4BDB
:10044C001A68642304FB03F35363012210217C48D4
:10045C0001F040FB794C01224021204601F03AFB8F
:10046C0001220221204601F035FB01224FF480616C
:10047C00204601F02FFBD3E0FFF762FE6E4B1A68AB
:10048C00642304FB03F353636C4C01224FF480711F
:10049C00204601F01FFB6A4D01221021284601F075
:1004AC0019FB01220221204601F014FB01224FF41A
:1004BC008061204601F00EFB01220421284601F048
:1004CC0009FBADE0FFF73CFE5B4B1A68642304FBB1
:1004DC0003F35363594D01224FF48071284601F008
:1004EC00F9FA574C01221021204601F0F3FA0122AF
:1004FC000221284601F0EEFA01224FF480612846D1
:10050C0001F0E8FA01220421204601F0E3FA01226D
:10051C000221204601F0DEFA82E0FFF711FE464B85
:10052C001A68642304FB03F35363444C01224FF415
:10053C008071204601F0CEFA01221021404801F0D2
:10054C00C9FA01224021204601F0C4FA68E0FFF705
:10055C00F7FD394B1A68642304FB03F35363374CE0
:10056C0001224FF48071204601F0B4FA344D01227F
:10057C001021284601F0AEFA01220221204601F09A
:10058C00A9FA01224FF48061204601F0A3FA01225E
:10059C000421284601F09EFA01220221284601F08E
:1005AC0099FA01224021204601F094FA38E0FFF735
:1005BC00C7FD214B1B68642202FB04F45C631F4CD7
:1005CC0001224FF48071204601F084FA1C4D012267
:1005DC001021284601F07EFA01220221204601F06A
:1005EC0079FA01224FF48061204601F073FA01225E
:1005FC000421284601F06EFA01224021204601F028
:10060C0069FA0DE02046FFF741FE4FF47A7000F0D6
:10061C000DFE0134092CF5DDFFF792FDFFF790FD7F
:10062C0038BD0024F6E7FFF78BFD0122202104489A
:10063C0001F050FAF4E700BF14010020000C014057
:10064C000008014072B6FEE708B50A480A4B036081
:10065C004FF4E133436000238360C36003610C22D9
:10066C0042618361C36101F00BFC00B908BDFFF767
:10067C00E9FF00BF8C0000200038014010B596B097
:10068C0000241294139414941594109411940994B6
:10069C000A940B940C940D940E940F9420222146E2
:1006AC0001A801F0F0FD2948294B036044608460E7
:1006BC0040F2FF33C36004614461846100F026FBA7
:1006CC00002837D14FF48053129312A91F4800F021
:1006DC0017FC002830D11D4800F044FB00282DD118
:1006EC0000231093119310A9184800F0F3FC38BBA9
:1006FC006023099300220A920B920C920D920E9297
:10070C000F9209A9114800F087FBD8B90023019377
:10071C0002930393049305934FF4005206920893AB
:10072C0001A90A4800F00CFD70B9084800F0E4F883
:10073C0016B010BDFFF786FFFFF784FFFFF782FFAF
:10074C00FFF780FFFFF77EFFFFF77CFF140100200F
:10075C00002C014000B591B02822002106A801F020
:10076C0092FD0023019302930393049305930122BA
:10077C0006924FF4803307930A9202220D920E9345
:10078C004FF4E0130F9306A800F07AFD80B90F2305
:10079C00019302210291002303934FF4806204928F
:1007AC00059301A800F0ACFF20B911B05DF804FB73
:1007BC00FFF748FFFFF746FF08B500F013FDFFF702
:1007CC00C9FFFFF7F9FCFFF747FDFFF73DFFFFF708
:1007DC0055FF00210B4800F00FFC0B4C6423012249
:1007EC0021460A4801F07BFB2578204601F00FFCDE
:1007FC0002460749284601F00FFC20783038FFF7F5
:10080C0045FDEAE7140100205C0100208C0000206B
:10081C0028300008FEE7FEE7FEE7FEE7FEE770473C
:10082C007047704708B500F0EFFC08BD08B50248EA
:10083C0001F08CF908BD00BFD000002008B50248BB
:10084C0000F06DF908BD00BF1401002082B00A4B06
:10085C009A6942F001029A619A6902F001020092CF
:10086C00009ADA6942F08052DA61DB6903F0805356
:10087C000193019B02B070470010024002681B4BB1
:10088C009A4200D0704710B582B0044603F5644319
:10089C009A6942F400629A619B6903F400630193C4
:1008AC00019B1348134B03601023436000238360A8
:1008BC008022C2604FF4807202614FF48062426108
:1008CC008361C36101F00CF960B9094B63625C622E
:1008DC00002211461A2001F021FA1A2001F02EFAFA
:1008EC0002B010BDFFF7AEFEEFE700BF002C0140D9
:1008FC00D00000201C00024000B587B000230293FA
:10090C0003930493059302680D4B9A4202D007B0EF
:10091C005DF804FB03F564439A6942F004029A61A2
:10092C009B6903F004030193019B4FF480730293C2
:10093C0002230393059302A9024800F0BDFFE6E7EA
:10094C00002C01400008014010B586B00023029332
:10095C000393049305930268174B9A4201D006B097
:10096C0010BD03F558439A6942F480429A619A6922
:10097C0002F480420092009A9A6942F004029A6151
:10098C009B6903F004030193019B4FF400730293E2
:10099C000223039303230593084C02A9204600F07D
:1009AC008BFF4FF48063029300230393049302A9FB
:1009BC00204600F081FFD2E70038014000080140DA
:1009CC0030B4036A23F001030362026A4568836949
:1009DC0023F073030C681C4322F002028B68134350
:1009EC000B4A904206D0456084614A6842630362B8
:1009FC0030BC704723F00803CA681A4322F0040382
:100A0C0025F440754A692A438D691543EBE700BF0D
:100A1C00002C014030B4036A23F480730362036A30
:100A2C004468C26922F073020D68154323F4007305
:100A3C008A6843EA02230D4A904206D04460C5619D
:100A4C004A68C263036230BC704723F40063CA680F
:100A5C0043EA022323F4806324F440544A6944EAB1
:100A6C0002148A6944EA0214E8E700BF002C014032
:100A7C0030B4036A23F480530362036A4468C26986
:100A8C0022F4E6420D6842EA052223F400538D68F5
:100A9C0043EA0533074DA84206D04460C2614A6858
:100AAC000264036230BC704724F480444D6944EA0C
:100ABC008514F2E7002C014010B4036A046A24F098
:100ACC0001040462846924F0F00C4CEA021223F055
:100ADC000A030B438261036210BC704710B4036AB3
:100AEC0023F0100303628469036A24F4704C4CEA0B
:100AFC00023223F0A00343EA01138261036210BCAB
:100B0C007047836823F070030B4343F00703836043
:100B1C00704770477047704770477047704710B503
:100B2C00044603681A6912F0020F11D0DA6812F049
:100B3C00020F0DD06FF002021A61012303770368D4
:100B4C009B6913F0030F70D0FFF7E6FF00232377A8
:100B5C0023681A6912F0040F12D0DA6812F0040F2D
:100B6C000ED06FF004021A610223237723689B696D
:100B7C0013F4407F5FD02046FFF7CEFF002323778E
:100B8C0023681A6912F0080F12D0DA6812F0080FF5
:100B9C000ED06FF008021A61042323772368DB69F7
:100BAC0013F0030F4ED02046FFF7B6FF0023237738
:100BBC0023681A6912F0100F12D0DA6812F0100FB5
:100BCC000ED06FF010021A61082323772368DB69BB
:100BDC0013F4407F3DD02046FFF79EFF0023237780
:100BEC0023681A6912F0010F03D0DA6812F0010FB2
:100BFC0036D123681A6912F0800F03D0DA6812F02C
:100C0C00800F34D123681A6912F0400F03D0DA68D0
:100C1C0012F0400F32D123681A6912F0200F03D062
:100C2C00DA6812F0200F30D110BDFFF774FF2046A8
:100C3C00FFF773FF8AE72046FFF76DFF2046FFF7AB
:100C4C006CFF9BE72046FFF766FF2046FFF765FF2A
:100C5C00ACE72046FFF75FFF2046FFF75EFFBDE7DE
:100C6C006FF001021A612046FFF754FFC1E76FF0E5
:100C7C0080021A61204600F08DFAC3E76FF0400243
:100C8C001A612046FFF74AFFC5E76FF020021A6190
:100C9C00204600F07EFAC7E703681B4A90420AD050
:100CAC00B0F1804F07D0A2F59432904203D002F5F8
:100CBC008062904203D123F070034A681343124AB6
:100CCC0090420AD0B0F1804F07D0A2F594329042F6
:100CDC0003D002F58062904203D123F44073CA68BA
:100CEC00134323F080034A69134303608B68C36288
:100CFC000B688362044B984202D001234361704716
:100D0C000B690363F9E700BF002C014040B310B539
:100D1C00044690F83D30F3B1022384F83D3021466F
:100D2C0051F8040BFFF7B8FF012384F8463084F820
:100D3C003E3084F83F3084F8403084F8413084F8F9
:100D4C00423084F8433084F8443084F8453084F8D9
:100D5C003D30002010BD80F83C30FFF78FFDDBE705
:100D6C000120704740B310B5044690F83D30F3B104
:100D7C00022384F83D30214651F8040BFFF78CFF19
:100D8C00012384F8463084F83E3084F83F3084F8F0
:100D9C00403084F8413084F8423084F8433084F891
:100DAC00443084F8453084F83D30002010BD80F884
:100DBC003C30FFF7AEFEDBE70120704730B4036A2E
:100DCC0023F010030362036A4468826922F4E6424A
:100DDC000D6842EA052223F020038D6843EA0513CF
:100DEC000C4DA84206D0446082614A68826303625B
:100DFC0030BC704723F08003CD6843EA051323F021
:100E0C00400324F440644D6944EA85048D6944EA46
:100E1C008504E8E7002C014038B590F83C30012BF4
:100E2C0060D004460D46012380F83C300C2A1AD8B9
:100E3C00DFE802F0071919191D19191931191919B7
:100E4C0044000068FFF7BCFD2268936943F0080377
:100E5C0093612268936923F0040393612268936978
:100E6C0029690B439361002084F83C0038BD00686D
:100E7C00FFF7A4FF2268936943F40063936122682F
:100E8C00936923F48063936122689369296943EA27
:100E9C0001239361E7E70068FFF7BCFD2268D36983
:100EAC0043F00803D3612268D36923F00403D361B0
:100EBC002268D36929690B43D361D4E70068FFF733
:100ECC00D7FD2268D36943F40063D3612268D369E8
:100EDC0023F48063D3612268D369296943EA01232F
:100EEC00D361C0E70220C1E710B4846824F47F4CBE
:100EFC0042EA03220A4342EA0C02826010BC7047A9
:100F0C0090F83C30012B66D010B50446012380F8D4
:100F1C003C30022380F83D300268936823F47F4311
:100F2C0023F0770393600B68602B40D022D8402BC2
:100F3C0047D00BD9502B0ED1CA6849680068FFF70F
:100F4C00BBFD50212068FFF7DCFD04E0202B0CD00A
:100F5C0008D9302B09D0012384F83D30002084F8C7
:100F6C003C0010BD0BB1102BF5D119462068FFF7D2
:100F7C00C8FDF0E7702B0ED0B3F5005FEBD1CB685A
:100F8C004A6889680068FFF7AFFF2268936843F4EA
:100F9C0080439360DFE7CB684A6889680068FFF795
:100FAC00A3FF2268936843F077039360D3E7CA6882
:100FBC0049680068FFF792FD60212068FFF7A1FDEA
:100FCC00C9E7CA6849680068FFF776FD40212068C8
:100FDC00FFF797FDBFE70220704701F01F014FF0AC
:100FEC00010C0CFA01FC036A23EA0C030362036A8A
:100FFC008A4013430362704710B50446084651BB40
:10100C0094F83E30DBB2013B18BF0123002B5BD1BF
:10101C00002839D1022384F83E3001220146206891
:10102C00FFF7DBFF23682A4A93423DD02368284A06
:10103C0093423ED0B3F1804F3BD0A2F59432934211
:10104C0037D002F58062934233D01A6842F0010225
:10105C001A60002039E0042908D008290DD094F832
:10106C004130DBB2013B18BF0123CFE794F83F308E
:10107C00DBB2013B18BF0123C8E794F84030DBB268
:10108C00013B18BF0123C1E7042805D0082807D06D
:10109C00022384F84130C0E7022384F83F30BCE7D8
:1010AC00022384F84030B8E75A6C42F400425A6488
:1010BC00BCE79A6802F00702062A07D01A6842F0C9
:1010CC0001021A60002000E0012010BD0020FCE7A6
:1010DC00002C014090F83C20012A2CD010B403467F
:1010EC00012280F83C20022280F83D2002685068E2
:1010FC00946820F0700C086840EA0C0050601A6884
:10110C000E4882420AD0B2F1804F07D0A0F594303D
:10111C00824203D000F58060824204D124F0800426
:10112C00496821439160012283F83D20002083F817
:10113C003C0010BC70470220704700BF002C0140DF
:10114C00024690F83C30012B21D0012380F83C3032
:10115C00CB6823F440738868034323F480634868A6
:10116C00034323F400630868034323F480530869A2
:10117C00034323F400534869034323F48043C969B0
:10118C000B4311684B64002082F83C00704702202E
:10119C00704770477047000010B504460E4B1A7824
:1011AC004FF47A73B3FBF2F30C4A1068B0FBF3F014
:1011BC0000F0D2FD68B90F2C01D901200AE0002201
:1011CC0021464FF0FF3000F0A9FD054B1C600020BC
:1011DC0000E0012010BD00BF00000020080000202E
:1011EC000400002008B5074A136843F0100313608D
:1011FC00032000F081FD0F20FFF7CEFFFFF726FB49
:10120C00002008BD00200240034A1168034B1B78E4
:10121C000B441360704700BF6001002000000020E9
:10122C00014B1868704700BF6001002038B50446B8
:10123C00FFF7F6FF0546B4F1FF3F02D0044B1B78D5
:10124C001C44FFF7EDFF401BA042FAD338BD00BF92
:10125C000000002082B0084B1B68084AA2FB032345
:10126C005B0A00FB03F3019300BF019B5A1E019222
:10127C00002BF9D102B0704708000020D34D62104A
:10128C00002800F0F18170B582B00446036813F0B9
:10129C00010F2CD0994B5B6803F00C03042B1DD071
:1012AC00964B5B6803F00C03082B12D06368B3F504
:1012BC00803F41D0002B55D103F1804303F504331B
:1012CC001A6822F480321A601A6822F480221A609A
:1012DC0037E08A4B5B6813F4803FE7D0874B1B6881
:1012EC0013F4003F03D06368002B00F0BF81236828
:1012FC0013F0020F75D0814B5B6813F00C0F5FD0AD
:10130C007E4B5B6803F00C03082B54D02369002B35
:10131C0000F08A807A4B01221A60FFF781FF0546A4
:10132C00764B1B6813F0020F75D1FFF779FF401B4A
:10133C000228F5D903209EE1704A136843F48033E8
:10134C001360636843B3FFF76BFF05466B4B1B6879
:10135C0013F4003FCBD1FFF763FF401B6428F5D992
:10136C00032088E1B3F5A02F09D0644B1A6822F44E
:10137C0080321A601A6822F480221A60E1E703F1C5
:10138C008043A3F53C331A6842F480221A601A6831
:10139C0042F480321A60D4E7FFF742FF0546574B00
:1013AC001B6813F4003FA2D0FFF73AFF401B6428E0
:1013BC00F5D903205FE1514B5B6813F4803FA5D155
:1013CC004E4B1B6813F0020F03D02369012B40F026
:1013DC004F814A4A136823F0F803616943EAC10359
:1013EC001360236813F0080F33D0A369002B5CD073
:1013FC00434B0122C3F88024FFF712FF05463F4BF5
:10140C005B6A13F0020F21D1FFF70AFF401B022881
:10141C00F5D903202FE1394A136823F0F8036169E9
:10142C0043EAC1031360DCE7354B00221A60FFF777
:10143C00F7FE0546314B1B6813F0020FD1D0FFF7B6
:10144C00EFFE401B0228F5D9032014E10120FFF721
:10145C0001FF236813F0040F00F09680274BDB6923
:10146C0013F0805F34D1254BDA6942F08052DA6197
:10147C00DB6903F080530193019B0125214B1B6811
:10148C0013F4807F26D0E368012B3DD0002B53D181
:10149C0003F1804303F504331A6A22F001021A6245
:1014AC001A6A22F004021A6233E0154B0022C3F8C8
:1014BC008024FFF7B5FE0546104B5B6A13F0020F54
:1014CC00C7D0FFF7ADFE401B0228F5D90320D2E0B0
:1014DC000025D3E70B4A136843F480731360FFF7BE
:1014EC009FFE0646074B1B6813F4807FCBD1FFF79A
:1014FC0097FE801B6428F5D90320BCE00010024045
:10150C0000004242007000405F4A136A43F001033E
:10151C001362E36833B3FFF783FE06465A4B1B6A2C
:10152C0013F0020F2FD1FFF77BFE801B41F28833A3
:10153C009842F3D903209EE0052B09D0524B1A6A2E
:10154C0022F001021A621A6A22F004021A62E0E71F
:10155C004D4B1A6A42F004021A621A6A42F00102F6
:10156C001A62D6E7FFF75CFE0646474B1B6A13F080
:10157C00020F08D0FFF754FE801B41F288339842CB
:10158C00F3D9032077E0E5B9E369002B72D03E4A2A
:10159C00526802F00C02082A56D0022B17D03B4B93
:1015AC0000221A66FFF73CFE0446374B1B6813F00B
:1015BC00007F47D0FFF734FE001B0228F5D903202B
:1015CC0059E0314AD36923F08053D361DCE72F4BC8
:1015DC0000221A66FFF724FE05462B4B1B6813F0FE
:1015EC00007F06D0FFF71CFE401B0228F5D9032014
:1015FC0041E0236AB3F5803F1AD023494B6823F4AA
:10160C007413226A606A024313434B601F4B01221E
:10161C001A66FFF705FE04461B4B1B6813F0007F90
:10162C000ED1FFF7FDFD001B0228F5D9032022E0A7
:10163C00154A536823F40033A1680B435360DCE76D
:10164C00002018E0002016E0012B16D00E4B5B6832
:10165C0003F48031226A914211D103F47013626A4F
:10166C0093420ED1002006E001207047012002E0D9
:10167C00012000E0002002B070BD0120FBE701203A
:10168C00F9E70120F7E700BF0010024000004242DA
:10169C0086B0174B0FCB0DF1180C0CE90F0040F274
:1016AC000123ADF80430134B5B6803F00C02082ADD
:1016BC0002D0114806B07047C3F3834218326A4413
:1016CC0012F8100C13F4803F0DD00A4B5B68C3F377
:1016DC00404318336B4413F8143C074A02FB00F0E8
:1016EC00B0FBF3F0E6E7054B03FB00F0E2E700BFCD
:1016FC002C3000080010024000127A0000093D0056
:10170C00002800F0A08070B50D460446524B1B68B3
:10171C0003F007038B420BD24F4A136823F00703E5
:10172C000B431360136803F007038B4240F08D806A
:10173C00236813F0020F17D013F0040F04D0474A9C
:10174C00536843F4E0635360236813F0080F04D02C
:10175C00424A536843F460535360404A536823F041
:10176C00F003A1680B435360236813F0010F31D0D1
:10177C006368012B20D0022B25D0384A126812F056
:10178C00020F64D035494A6822F0030213434B60C0
:10179C00FFF746FD0646314B5B6803F00C036268AD
:1017AC00B3EB820F16D0FFF73BFD801B41F2883361
:1017BC009842F0D9032045E0284A126812F4003F01
:1017CC00E0D101203EE0254A126812F0007FD9D109
:1017DC00012037E0204B1B6803F00703AB420AD90A
:1017EC001D4A136823F007032B431360136803F09F
:1017FC000703AB422DD1236813F0040F06D0174A10
:10180C00536823F4E063E1680B435360236813F0DF
:10181C00080F07D0114A536823F46053216943EA37
:10182C00C1035360FFF734FF0C4B5B68C3F3031326
:10183C000B4AD35CD8400B4B18600B4B1868FFF766
:10184C00ABFC002070BD012070470120FAE701209D
:10185C00F8E70120F6E700BF00200240001002402C
:10186C00483000080800002004000020014B1868D4
:10187C00704700BF0800002008B5FFF7F7FF044BC6
:10188C005B68C3F30223034AD35CD84008BD00BF96
:10189C00001002404030000808B5FFF7E7FF044B8A
:1018AC005B68C3F3C223034AD35CD84008BD00BFB6
:1018BC00001002404030000870B582B00024A446ED
:1018CC00A2E07E4DAB4210D007D97D4DAB420CD07F
:1018DC0005F58035AB4208D013E0A5F58015AB4279
:1018EC0003D005F57025AB4207D18B68002B55D082
:1018FC00012B4ED04261082403E0A5F58015AB42C4
:10190C00F3D0BEF1FF0F4BD806464FEA8C0233687A
:10191C000F25954023EA050304FA02F213433360C2
:10192C004B6813F0805F6DD0664B9A6942F00102F0
:10193C009A619B6903F001030193019B4FEA9C029E
:10194C00951C614B53F825600CF00305AD000F237B
:10195C00AB4026EA03065D4B984228D003F5806322
:10196C00984200F08D8003F58063984200F08A80E5
:10197C0003F58063984218D0042319E0CC68C0E7C3
:10198C00CC680434BDE7CC680834BAE7CC680C34B6
:10199C00B7E702610824B4E70024B2E70424B0E7F7
:1019AC00061DACF108029200B1E7032300E000230E
:1019BC00AB4033430232444D45F822304B6813F4AC
:1019CC00803F61D0424A136843EA0E0313604B68B0
:1019DC0013F4003F5ED03E4A536843EA0E03536053
:1019EC004B6813F4801F5BD0394A936843EA0E03AB
:1019FC0093604B6813F4001F58D0354AD36843EA00
:101A0C000E03D3600CF1010C0B6833FA0CF253D0BB
:101A1C00012202FA0CF203EA020E32EA0303F1D1BC
:101A2C004B68122B3FF64DAF122B3FF66AAF01A558
:101A3C0055F823F0F71800088919000893190008C5
:101A4C00A51900080F1900080F1900080F19000834
:101A5C000F1900080F1900080F1900080F190008BA
:101A6C000F1900080F1900080F1900080F190008AA
:101A7C000F1900080F1900088D1900089919000892
:101A8C00012395E7022393E7114A136823EA0E0317
:101A9C0013609CE70E4A536823EA0E0353609FE7DA
:101AAC000B4A936823EA0E039360A2E7084AD368B3
:101ABC0023EA0E03D360A5E702B070BD000022102C
:101ACC0000003110001002400000014000080140ED
:101ADC00000401400AB101617047090401617047BB
:101AEC0060B310B402460168154B0B441548A0FBBB
:101AFC0003031B099B001364134BD363022382F86B
:101B0C002130086820F47F5020F03000536894682E
:101B1C002343D468234314692343546923439469AE
:101B2C002343D469234303430B60002090630123B8
:101B3C0082F8213082F8200010BC704701207047D9
:101B4C00F8FFFDBFCDCCCCCC0000024038B5C36B48
:101B5C001A6804682568016C04238B40134235D045
:101B6C0015F0040F32D0236813F0200F03D1236833
:101B7C0023F0040323600368434A934214D01432C5
:101B8C00934218D01432934217D01432934217D088
:101B9C001432934217D01432934202D04FF0806229
:101BAC0003E04FF4800200E00422384B5A60C36A11
:101BBC0003B1984738BD4022F7E74FF48062F4E751
:101BCC004FF48042F1E74FF48022EEE702238B4082
:101BDC0013423CD015F0020F39D0236813F0200FBC
:101BEC0006D1236823F00A032360012380F82130F7
:101BFC000368254A934214D0143293421CD01432F9
:101C0C0093421BD0143293421BD0143293421BD0FC
:101C1C001432934202D04FF0007203E04FF40012E2
:101C2C0000E00222194B5A60002380F82030836AAE
:101C3C00002BBFD09847BDE72022F3E74FF400728A
:101C4C00F0E74FF40052EDE74FF40032EAE70823D7
:101C5C008B401342AED015F0080FABD0236823F0A5
:101C6C000E032360026CC16B012303FA02F24A607B
:101C7C00836380F82130002380F82030036B002B25
:101C8C0098D0984796E700BF080002400000024039
:101C9C00002808DB0901C9B200F1604000F5614081
:101CAC0080F80013704700F00F000901C9B2014B16
:101CBC001954704714ED00E000B500F00700C0F1B6
:101CCC00070CBCF1040F28BF4FF0040C031D062BAE
:101CDC000FD9C31E4FF0FF3E0EFA0CF021EA0001A3
:101CEC0099400EFA03FE22EA0E0241EA02005DF868
:101CFC0004FB0023EEE70000074AD36823F4E063FB
:101D0C001B041B0C000200F4E060034343F0BF63B0
:101D1C0043F40033D360704700ED00E010B5044687
:101D2C00054BD868C0F30220FFF7C6FF01462046DA
:101D3C00FFF7AEFF10BD00BF00ED00E0002807DB91
:101D4C0000F01F02400901239340024A42F8203060
:101D5C00704700BF00E100E00138B0F1807F0BD28A
:101D6C004FF0E0235861054AF02182F8231000203F
:101D7C00986107221A6170470120704700ED00E05E
:101D8C007047000010B504460268136923F44053F1
:101D9C00C1680B43136183680269134342691A4398
:101DAC000168CB6823F4B05323F00C031343CB60CE
:101DBC000268536923F4407381690B4353610268D1
:101DCC00134B9A4220D0FFF757FD024602EB8202DA
:101DDC0002EB820263689B00B2FBF3F20D48A0FB9E
:101DEC0002314909642303FB11231B013233A0FB8D
:101DFC0003035B0903F0F00202EB011203F00F0383
:101E0C00216813448B6010BDFFF746FD0246DDE7E9
:101E1C00003801401F85EB512DE9F84305460F466C
:101E2C0016469946DDF820802B681C6837EA0404B6
:101E3C000CBF01240024B4421FD1B8F1FF3FF3D0F2
:101E4C00B8F1000F05D0FFF7EBF9A0EB0900404506
:101E5C00EAD92A68D36823F4D073D3602A6853690B
:101E6C0023F001035361202385F83D3085F83E3083
:101E7C00002385F83C30032000E00020BDE8F88307
:101E8C0058B310B5044690F83D300BB3242384F8B6
:101E9C003D302268D36823F40053D3602046FFF70B
:101EAC0071FF2268136923F490431361226853690C
:101EBC0023F02A0353612268D36843F40053D360A0
:101ECC0000202064202384F83D3084F83E3010BD7F
:101EDC0080F83C30FEF738FDD8E7012070472DE93B
:101EEC00F04182B01E4690F83E30DBB2202B5CD124
:101EFC0004460D46904600295BD0002A5BD090F832
:101F0C003C30012B59D0012380F83C300023036472
:101F1C00222280F83E200363FFF782F90746A4F8DB
:101F2C002C80A4F82E80A368B3F5805F05D04FF009
:101F3C000008002384F83C3017E0236913B14FF0FC
:101F4C000008F6E7A8460025F3E723685B68C3F3AF
:101F5C00080328F8023B03E023685B682B7001350B
:101F6C00E28D92B2013A92B2E285E38D9BB2BBB1A3
:101F7C0000963B46002220212046FFF74DFFF0B98A
:101F8C00002DE2D0A368B3F5805FE5D013B92369C7
:101F9C00002BE1D023685B6803F07F032B70DEE736
:101FAC00202384F83E30002000E0022002B0BDE87F
:101FBC00F0810120FAE70120F8E70220F6E7032080
:101FCC00F4E700000C480D490D4A002302E0D458F8
:101FDC00C4500433C4188C42F9D30A4A0A4C002367
:101FEC0001E013600432A242FBD3FFF7C9FE00F0FC
:101FFC0023F9FEF7E1FB7047000000207000002081
:10200C00F83100087000002078010020FEE70A2259
:10201C00002100F0A7BA00000EB40B4B33B51C68BE
:10202C00054624B1A36913B9204600F067F806AB46
:10203C0029462046059A019300F09EFA02B0BDE8AD
:10204C00304003B0704700BF0C000020002310B5D7
:10205C000446C0E90033C0E90433836081814366E0
:10206C00C2818361194608225C3000F00CF9054BE3
:10207C0024626362044BA362044BE362044B23634C
:10208C0010BD00BFED2300080F24000847240008F2
:10209C006B240008014900F0AFB800BF39270008D5
:1020AC00682370B54D1E5D430E4605F1740100F0BA
:1020BC0013F9044640B10021C0E900160C30A060B1
:1020CC0005F1680200F0DFF8204670BD014800F011
:1020DC00D8B800BF65010020014800F0D3B800BF9C
:1020EC0065010020014800F0CCB800BF660100205B
:1020FC00014800F0C7B800BF6601002010B50446C7
:10210C00FFF7F0FFA3691BB1BDE81040FFF7F0BF6C
:10211C00C4E912332365134B134A1B68A262A34212
:10212C0008BF0123204608BFA36100F01FF86060C0
:10213C00204600F01BF8A060204600F017F80022A3
:10214C000421E0606068FFF781FF01220921A0688B
:10215C00FFF77CFF02221221E068FFF777FF0123D3
:10216C00A361D1E7B8300008A1200008F8B50746F4
:10217C00FFF7ACFF1E4B1E68B36913B93046FFF76F
:10218C00BDFF4836D6E90134013B03D533680BB3A8
:10219C003668F7E7B4F90C50D5B9164B04F1580072
:1021AC00E360656600F06CF8FFF796FF082229469D
:1021BC00C4E90155C4E904552560A56104F15C002E
:1021CC0000F061F8C4E90D55C4E912552046F8BD7C
:1021DC006834D9E704213846FFF762FF04463060C3
:1021EC000028D5D1FFF778FF0C233B60EEE700BF4A
:1021FC00B83000080100FFFF2DE9F8430646884679
:10220C00002700F14804D4E90195B9F1010905D57D
:10221C002468002CF7D13846BDE8F883AB89012B34
:10222C0007D9B5F90E30013303D029463046C047E3
:10223C0007436835E9E7000070B500260C4D0D4CDE
:10224C00641BA410A64209D100F0DCFE00260A4D46
:10225C000A4C641BA410A64205D170BD55F8043B72
:10226C0098470136EEE755F8043B98470136F2E7FC
:10227C00F0310008F0310008F0310008F4310008AA
:10228C0070477047704703460244934200D1704731
:10229C0003F8011BF9E7000070B50E4E0C463168CF
:1022AC00054611B900F08CF830602146284600F044
:1022BC0087F8431C0AD0C41C24F00304A04207D0A6
:1022CC00211A284600F07CF8013001D14FF0FF3480
:1022DC00204670BD6C0100202DE9F041CD1C25F08D
:1022EC00030508350C2D38BF0C25002D074601DBE6
:1022FC00A94205D90C2300263B603046BDE8F0818D
:10230C002E4E00F061FA33681C4634BB2946384621
:10231C00FFF7C2FF431C04464DD134682646002EFD
:10232C0040D123683146384604EB030800F048F8E6
:10233C0080453AD123680335ED1A25F0030508359D
:10234C000C2D38BF0C2538462946FFF7A5FF013068
:10235C002BD023682B4423600EE02268521B1ED422
:10236C000B2A16D96119A342256018BF59606368FE
:10237C0008BF316062514B60384604F10B0600F027
:10238C0029FA26F00706231DF21AB6D09B1BA35080
:10239C00B3E76268A3420CBF32605A60ECE7234695
:1023AC006468B2E734467668B9E70C2338463B607C
:1023BC0000F010FAA1E72560DEE700BF68010020FD
:1023CC0038B50023054D044608462B6000F004FE8A
:1023DC00431C02D12B6803B1236038BD700100206F
:1023EC0010B50C46B1F90E1000F042FA0028ABBF44
:1023FC00636DA3891B1823F48053ACBF6365A38161
:10240C0010BD2DE9F0411F468B890546DB050C46B6
:10241C00164605D502230022B1F90E1000F0C2F9C0
:10242C00A389324623F48053A38128463B46B4F952
:10243C000E10BDE8F04100F0CFB810B50C46B1F964
:10244C000E1000F0AFF9431CA38915BF606523F48F
:10245C00805343F48053A38118BFA38110BDB1F9FD
:10246C000E1000F0CBB80000012B2DE9F04786468A
:10247C00904601D0242B06D900F0D0F81623036027
:10248C000020BDE8F0870D4635482A4615F8014B6B
:10249C00065D16F00806F8D12D2C2ED101262C78CD
:1024AC00951C002B57D0102B09D1302C07D12A7832
:1024BC0002F0DF02582A49D110236C780235002231
:1024CC0006F1004C0CF1FF3CBCFBF3F9104603FB8E
:1024DC0019CAA4F13007092F14D83C46A34220DDB9
:1024EC00571C07D0814519D301D1A24516DB012217
:1024FC0000FB034015F8014BEBE72B2C04BF2C78A9
:10250C00951CCEE7A4F14107192F01D8373CE5E71C
:10251C00A4F16107192F04D8573CDFE74FF0FF32C5
:10252C00E8E7531C08D122236046CEF80030B8F1FE
:10253C00000FA6D0691E06E006B14042B8F1000FAC
:10254C009FD0002AF6D1C8F800109AE73024002B4F
:10255C00B5D10823B3E7302CA9D00A23AFE700BFCD
:10256C00BD30000813460A46014602480068FFF7D2
:10257C007BBF00BF0C0000202DE9F0411F464FF43B
:10258C000073ADF5047D0E4615460446039318B151
:10259C0083690BB9FFF7B2FD0DF110082B464146CC
:1025AC002046009703AA00F075F9054688B102464B
:1025BC0031462046039B00F00FF84545039003D0AD
:1025CC002946204600F00CF903980DF5047DBDE872
:1025DC00F0814FF0FF30F8E738B504460846114655
:1025EC000022054D2A601A4600F004FD431C02D15E
:1025FC002B6803B1236038BD7001002038B500236F
:10260C00054D044608462B6000F0CEFC431C02D15D
:10261C002B6803B1236038BD70010020014B186892
:10262C00704700BF0C0000208A89F8B505461007DA
:10263C000C4657D44B68002B04DC0B6C002B01DCD4
:10264C000020F8BDE66A002EFAD0002312F4805266
:10265C002F68216A2B6032D0606DA3895A0705D58B
:10266C006368C01A636B0BB1236CC01A002302465B
:10267C00E66A2846216AB047431CA38906D129681B
:10268C001D292BD8284A0A41D60727D4002262607C
:10269C002269D904226004D5421C01D12B6803B9EC
:1026AC006065616B2F600029CAD004F14403994224
:1026BC0002D0284600F094F800206063C1E70123A3
:1026CC002846B047411CC8D12B68002BC5D01D2B08
:1026DC0001D0162B01D12F60B2E7A38943F0400340
:1026EC00A381AEE70F69002FAAD0930718BF002370
:1026FC000E6808BF4B69F61B0F608B60002E9FDDC8
:10270C0033463A462846216AD4F828C0E0470028C8
:10271C0006DCA3894FF0FF3043F04003A38190E720
:10272C000744361AEAE700BFFEFFBFDF38B50B6976
:10273C0005460C4613B90025284638BD18B18369E7
:10274C000BB9FFF7DBFC144B9C421BD16C68B4F942
:10275C000C30002BEFD0626ED00704D4990502D454
:10276C00A06DFFF78EFD28462146FFF75DFF636ED7
:10277C000546DA07E0D4A3899B05DDD4A06DFFF7ED
:10278C0081FDD9E7054B9C4201D1AC68DFE7044BD6
:10279C009C4208BFEC68DAE77830000898300008F3
:1027AC005830000838B50446084611460022054D3D
:1027BC002A601A4600F000FC431C02D12B6803B1BE
:1027CC00236038BD700100200148FFF75ABD00BFDF
:1027DC00640100200148FFF755BD00BF64010020D3
:1027EC0038B50546002940D051F8043C0C1F002B8D
:1027FC00B8BFE418FFF7E8FF1C4A136833B96360ED
:10280C0014602846BDE83840FFF7E4BFA34208D95E
:10281C00206821188B4201BF19685B680918216078
:10282C00EDE71A465B680BB1A342FAD91168501850
:10283C00A0420BD120680144501883421160E0D1B2
:10284C0018685B68084410605360DAE702D90C23FF
:10285C002B60D6E7206821188B4201BF19685B6892
:10286C000918216063605460CBE738BD6801002013
:10287C0038B50446084611460022054D2A601A4612
:10288C0000F0A2FB431C02D12B6803B1236038BDBE
:10289C007001002030B515469BB01A462C6889B1E2
:1028AC00002C12BF4FF4C1634FF422730021002C93
:1028BC00ADF80C300091049108DA8B2303600020F2
:1028CC001BB030BD4FF422730C46F0E74FF6FF738C
:1028DC006946ADF80E301E9B0294059400F064F826
:1028EC00031E4FF00000A1BF2B60009B18700498D2
:1028FC00E6E72DE9F0471F468E688246BE420C463D
:10290C0090460B682CD88A8912F4906F26D0656992
:10291C00096905EB4505A3EB010905EBD5757B1C96
:10292C004B446D109D4238BF1D46530527D5294693
:10293C00FFF7D2FC064660B34A46216900F0D4FA90
:10294C00A38923F4906343F08003A38126614E4452
:10295C0026603E466561A5EB0905A560BE4200D91F
:10296C003E4632464146206800F0CCFA0020A3686F
:10297C009B1BA360236833442360BDE8F0872A4681
:10298C0000F0DAFA06460028E0D150462169FFF73C
:10299C0027FF0C23CAF80030A3894FF0FF3043F017
:1029AC004003A381E9E700002DE9F04F98468B899D
:1029BC0007461B060D4614469DB00ED50B6963B930
:1029CC004021FFF789FC2860286120B90C233B606B
:1029DC004FF0FF30D0E040236B610023099320239C
:1029EC008DF8293030234FF00109CDF80C80DFF839
:1029FC00A0818DF82A3023469A4613F8012B0AB190
:102A0C00252AF9D1BAEB040B0BD05B46224629469A
:102A1C003846FFF76EFF013000F0A980099A5A443E
:102A2C0009929AF80030002B00F0A18000234FF09F
:102A3C00FF32CDE905230AF1010A049307938DF8BF
:102A4C0053301A935446052214F8011B504800F0D9
:102A5C003DFA049AD8B9D00644BF20238DF85330E0
:102A6C00110744BF2B238DF853309AF800302A2BD2
:102A7C0015D0544600204FF00A0C079A214611F845
:102A8C00013B303B092B4DD9B0B1079214E0A0EBC0
:102A9C00080309FA03F31343A2460493D2E7039BFA
:102AAC00191D1B680391002BBBBF5B4242F0020255
:102ABC0007930793B8BF049223782E2B0CD163781D
:102ACC002A2B34D1039B02341A1D1B680392002B52
:102ADC00B8BF4FF0FF330593DFF8B8A00322504680
:102AEC00217800F0F3F938B14022049BA0EB0A00E6
:102AFC00824013430134049314F8011B0622264828
:102B0C008DF8281000F0E2F9002838D0234B1BBBBD
:102B1C00039B073323F0070308330393099B3344C8
:102B2C00099368E70C4601200CFB0232A6E7002350
:102B3C004FF00A0C194601340593204610F8012B6E
:102B4C00303A092A03D9002BC6D00591C4E70446B4
:102B5C0001230CFB0121F0E703AB00932A46384616
:102B6C000F4B04A9AFF30080421C0646D6D1AB89AB
:102B7C005B063FF52DAF09981DB0BDE8F08F03AB98
:102B8C0000932A463846064B04A900F07DF8EBE783
:102B9C00BD310008C3310008C73100080000000037
:102BAC00FF2800082DE9F047164699468A680B69FC
:102BBC0007469342B8BF1346336091F843200C4646
:102BCC00DDF820800AB1013333602368990642BFD7
:102BDC00336802333360256815F0060506D104F11D
:102BEC00190AE36832689B1AAB422BDC94F8432039
:102BFC00131E226818BF0123920630D4494638466A
:102C0C0004F14302C047013023D02368226903F04A
:102C1C000603042B14BF002533684FF0000608BFD1
:102C2C00E56804F11A0408BFED1A54F8123C08BF09
:102C3C0025EAE5759342C4BF9B1AED18B5421AD12B
:102C4C00002008E00123524649463846C04701306F
:102C5C0003D14FF0FF30BDE8F0870135C1E73020DC
:102C6C00E11881F843005A1C94F8451022440233B1
:102C7C0082F84310C2E70123224649463846C04732
:102C8C000130E6D00136D9E72DE9FF470F7E91469A
:102C9C00782F80460C469A460C9D01F1430207D8CA
:102CAC00622F0AD8002F00F0D580582F00F0C18079
:102CBC0004F1420584F842703AE0A7F16303152B46
:102CCC00F6D801A151F823F02D2D0008412D000854
:102CDC00BD2C0008BD2C0008BD2C0008BD2C000824
:102CEC00412D0008BD2C0008BD2C0008BD2C00088F
:102CFC00BD2C0008472E00086D2D0008012E000881
:102D0C00BD2C0008BD2C0008692E0008BD2C000845
:102D1C006D2D0008BD2C0008BD2C0008092E0008E4
:102D2C002B681A1D1B682A6004F1420584F8423096
:102D3C000123A0E020682B68070603F10401296039
:102D4C0001D51E6803E04606FBD5B3F90060002EE2
:102D5C0003DA2D23764284F843300A23594812E0D3
:102D6C002B682068191D2960050601D51E6802E034
:102D7C004106FBD51E886F2F0CBF08230A23514830
:102D8C00002184F843106568002DA8BF2168A56058
:102D9C00A4BF21F0040121600EB9002D4BD01546C3
:102DAC00B6FBF3F103FB1167C75D05F8017D3746F0
:102DBC00BB420E46F4D9082B0BD12368DE0708D58D
:102DCC00236961689942DEBF302305F8013C05F1A7
:102DDC00FF35521B22614B4621464046CDF800A0E0
:102DEC0003AAFFF7DFFE01304AD14FF0FF3004B0E9
:102DFC00BDE8F087236843F020032360782732482E
:102E0C0084F84570236829681F0651F8046B02D4B6
:102E1C005F0648BFB6B2DF0748BF43F02003296006
:102E2C0048BF23601EB9236823F0200323601023BE
:102E3C00A6E72448E4E71546BDE72B682668181D6D
:102E4C006169286035061B6801D5196002E07006BF
:102E5C00FBD51980002315462361BCE72B680021A4
:102E6C001A1D2A601D686268284600F02FF808B108
:102E7C00401B606063682361002384F84330AAE739
:102E8C002A46494640462369D0470130ADD02368D5
:102E9C009B0713D4E068039B9842B8BF1846A6E77B
:102EAC000123324649464046D04701309DD001357A
:102EBC00E36803995B1AAB42F2DCEBE7002504F103
:102ECC001906F5E7CE310008DF310008034610B5CE
:102EDC00C9B202449342184601D1002003E00478A1
:102EEC0001338C42F6D110BD0A44914200F1FF33FC
:102EFC0000D1704710B511F8014B914203F8014F06
:102F0C00F9D110BD884210B501EB020402D98442FC
:102F1C00234607D8431EA14208D011F8012B03F811
:102F2C00012FF8E7014602448A4200D110BD13F884
:102F3C00014D02F8014DF7E72DE9F04180461446AA
:102F4C000E4621B91146BDE8F041FFF7C5B92AB9C3
:102F5C00FFF746FC25462846BDE8F08100F01BF83B
:102F6C008442074602D8B4EB500F12D82146404693
:102F7C00FFF7B2F905460028EDD0BC422246314697
:102F8C0028BF3A46FFF7B0FF31464046FFF728FC12
:102F9C00E1E73546DFE751F8043C181F002BBCBFB6
:102FAC000B58C018704700005822024B4FF0FF30EE
:102FBC001A607047700100205822024B4FF0FF300E
:102FCC001A607047700100205822024B4FF0FF30FE
:102FDC001A60704770010020044A05491368002BE1
:102FEC0008BF0B4618441060184670477401002047
:102FFC00780100205822024B4FF0FF301A607047C6
:10300C0070010020F8B500BFF8BC08BC9E467047A4
:0C301C00F8B500BFF8BC08BC9E46704729
:103028002564000002030405060708090A0B0C0DB5
:103038000E0F101000000000000000000102030441
:103048000000000000000000010203040607080950
:103058000000000000000000000000000000000068
:103068000000000000000000000000000000000058
:103078000000000000000000000000000000000048
:103088000000000000000000000000000000000038
:103098000000000000000000000000000000000028
:1030A8000000000000000000000000000000000018
:1030B8001000002000202020202020202020282868
:1030C80028282820202020202020202020202020E0
:1030D8002020202020881010101010101010101020
:1030E8001010101010040404040404040404041050
:1030F80010101010101041414141414101010101DE
:1031080001010101010101010101010101010101A7
:1031180010101010101042424242424202020202B3
:103128000202020202020202020202020202020277
:103138001010101020000000000000000000000027
:103148000000000000000000000000000000000077
:103158000000000000000000000000000000000067
:103168000000000000000000000000000000000057
:103178000000000000000000000000000000000047
:103188000000000000000000000000000000000037
:103198000000000000000000000000000000000027
:1031A8000000000000000000000000000000000017
:1031B8000000000000232D302B2000686C4C0065B7
:1031C800666745464700303132333435363738394B
:1031D800414243444546003031323334353637387E
:0831E800396162636465660051
:0431F00031010008A1
:0431F4000D010008C1
:1031F80001000000100000000024F400100000206E
:1032080000000000783000089830000858300008A6
:1032180000000000000000000000000000000000A6
:103228000000000000000000000000000000000096
:103238000000000000000000000000000000000086
:103248000000000000000000000000000000000076
:103258000000000000000000000000000000000066
:0400000508001FD1FF
:00000001FF
