:020000040800F2
:1000000000500020F51E00084507000847070008BB
:10001000490700084B0700084D07000800000000D2
:100020000000000000000000000000004F07000872
:10003000510700080000000053070008550700089A
:100040003D1F00083D1F00083D1F00083D1F000820
:100050003D1F00083D1F00083D1F00083D1F000810
:100060003D1F00083D1F00083D1F00083D1F000800
:100070005D0700083D1F00083D1F00083D1F0008E8
:100080003D1F00083D1F00083D1F00083D1F0008E0
:100090003D1F00083D1F00083D1F00083D1F0008D0
:1000A0003D1F00083D1F00086D0700083D1F0008A8
:1000B0003D1F00083D1F00083D1F00083D1F0008B0
:1000C0003D1F00083D1F00083D1F00083D1F0008A0
:1000D0003D1F00083D1F00083D1F00083D1F000890
:1000E0003D1F00083D1F00083D1F000800000000E4
:1000F0000000000000000000000000000000000000
:0C01000000000000000000005FF808F1A3
:10010C0010B5054C237833B9044B13B10448AFF345
:10011C0000800123237010BD0C00002000000000A3
:10012C00981F000808B5034B1BB103490348AFF3F4
:10013C00008008BD0000000010000020981F00087F
:10014C0070B50024174B1C70174E22464FF480716B
:10015C00304601F051FC22464021304601F04CFC67
:10016C00124D22461021284601F046FC224604215D
:10017C00284601F041FC22460221284601F03CFCB5
:10018C0022464FF48061304601F036FC22460221B3
:10019C00304601F031FC22462021284601F02CFC8F
:1001AC0070BD00BFF8000020000C014000080140A9
:1001BC002DE9F04188B0002404940594069407942A
:1001CC00204B9A6942F020029A619A6902F020024F
:1001DC000192019A9A6942F004029A619A6902F0BA
:1001EC0004020292029A9A6942F008029A619B698F
:1001FC0003F008030393039BDFF84C80224636215F
:10020C00404601F0F9FB114D224640F2425128467E
:10021C0001F0F2FB3623049301270597069402267E
:10022C00079604A9404601F0D9FA40F242530493D0
:10023C0005970694079604A9284601F0CFFA08B052
:10024C00BDE8F0810010024000080140000C0140A4
:10025C0000B583B00A4B5A6942F001025A615B69DE
:10026C0003F001030193019B002211460C2001F0C5
:10027C00E7FC0C2001F0F4FC03B05DF804FB00BFBC
:10028C000010024038B50230442800F26381DFE8E8
:10029C0010F064016101610145005200720092008E
:1002AC00AB00CB00F00004012E0161016101610182
:1002BC006101610161016101610161016101610122
:1002CC006101610161016101610161016101610112
:1002DC006101610161016101610161016101610102
:1002EC0061016101610161016101610161016101F2
:1002FC0061016101610161016101610161016101E2
:10030C0061016101610161016101610161016201D0
:10031C00610161016101610161015F01FFF710FF82
:10032C0001224021914801F067FB012210219048E5
:10033C0001F062FB0EE1FFF703FF8C4C01224FF43E
:10034C008071204601F058FB01224021204601F02B
:10035C0053FB01220221204601F04EFBA4F58064E0
:10036C0001220221204601F047FB012204212046F4
:10037C0001F042FBEEE0FFF7E3FE7C4C01224FF470
:10038C008071204601F038FB01224021204601F00B
:10039C0033FB01220221204601F02EFBA4F58064E0
:1003AC0001221021204601F027FB012204212046C6
:1003BC0001F022FBCEE0FFF7C3FE012210216C48B6
:1003CC0001F01AFB694C01224021204601F014FB7C
:1003DC0001220221204601F00FFB01224FF4806123
:1003EC00204601F009FBB5E0FFF7AAFE5F4C0122A5
:1003FC004FF48071204601F0FFFA5D4D012210216F
:10040C00284601F0F9FA01220221204601F0F4FA03
:10041C0001224FF48061204601F0EEFA0122042102
:10042C00284601F0E9FA95E0FFF78AFE4F4D0122CC
:10043C004FF48071284601F0DFFA4D4C0122102157
:10044C00204601F0D9FA01220221284601F0D4FA03
:10045C0001224FF48061284601F0CEFA01220421DA
:10046C00204601F0C9FA01220221204601F0C4FA0B
:10047C0070E0FFF765FE3D4C01224FF48071204681
:10048C0001F0BAFA01221021394801F0B5FA012223
:10049C004021204601F0B0FA5CE0FFF751FE334CEE
:1004AC0001224FF48071204601F0A6FA304D012252
:1004BC001021284601F0A0FA01220221204601F069
:1004CC009BFA01224FF48061204601F095FA01223B
:1004DC000421284601F090FA01220221284601F05D
:1004EC008BFA01224021204601F086FA32E0FFF718
:1004FC0027FE1E4C01224FF48071204601F07CFA3D
:10050C001B4D01221021284601F076FA012202210E
:10051C00204601F071FA01224FF48061204601F06F
:10052C006BFA01220421284601F066FA01224021CF
:10053C00204601F061FA0DE02046FFF7A3FE4FF4D0
:10054C007A7000F005FE0134092CF5DDFFF7F8FD9B
:10055C00FFF7F6FD38BD0124F6E7FFF7F1FD0122A8
:10056C002021034801F048FAF4E700BF000C0140D9
:10057C000008014072B6FEE708B50A480A4B036052
:10058C004FF4E133436000238360C36003610C22AA
:10059C0042618361C36101F005FC00B908BDFFF73E
:1005AC00E9FF00BF280000200038014010B596B0CC
:1005BC000024129413941494159410941194099487
:1005CC000A940B940C940D940E940F9420222146B3
:1005DC0001A801F0D3FC2948294B036044608460D6
:1005EC0040F2FF33C36004614461846100F020FB7E
:1005FC00002837D14FF48053129312A91F4800F0F2
:10060C0011FC002830D11D4800F03EFB00282DD1F4
:10061C0000231093119310A9184800F0EDFC38BB7F
:10062C006023099300220A920B920C920D920E9267
:10063C000F9209A9114800F081FBD8B9002301934E
:10064C0002930393049305934FF40052069208937C
:10065C0001A90A4800F006FD70B9084800F0DEF860
:10066C0016B010BDFFF786FFFFF784FFFFF782FF80
:10067C00FFF780FFFFF77EFFFFF77CFFB000002045
:10068C00002C014000B591B02822002106A801F0F1
:10069C0075FC0023019302930393049305930122A9
:1006AC0006924FF4803307930A9202220D920E9316
:1006BC004FF4E0130F9306A800F074FD80B90F23DC
:1006CC00019302210291002303934FF48062049260
:1006DC00059301A800F0A6FF20B911B05DF804FB4A
:1006EC00FFF748FFFFF746FF08B500F00DFDFFF7D9
:1006FC00C9FFFFF75DFDFFF7ABFDFFF73DFFFFF710
:10070C0055FF094B64225A630021084800F006FC8F
:10071C00074C642301222146064801F072FB207825
:10072C003038FFF7AFFDF3E7002C0140B00000209C
:10073C00F800002028000020FEE7FEE7FEE7FEE7B9
:10074C00FEE770477047704708B500F0EFFC08BD36
:10075C0008B5024801F08CF908BD00BF6C00002000
:10076C0008B5024800F06DF908BD00BFB0000020CC
:10077C0082B00A4B9A6942F001029A619A6902F0BE
:10078C0001020092009ADA6942F08052DA61DB6968
:10079C0003F080530193019B02B07047001002409C
:1007AC0002681B4B9A4200D0704710B582B00446C9
:1007BC0003F564439A6942F400629A619B6903F4FD
:1007CC0000630193019B1348134B03601023436098
:1007DC00002383608022C2604FF4807202614FF468
:1007EC00806242618361C36101F00CF960B9094B0D
:1007FC0063625C62002211461A2001F021FA1A2071
:10080C0001F02EFA02B010BDFFF7B4FEEFE700BF07
:10081C00002C01406C0000201C00024000B587B089
:10082C000023029303930493059302680D4B9A42A1
:10083C0002D007B05DF804FB03F564439A6942F0FB
:10084C0004029A619B6903F004030193019B4FF42A
:10085C008073029302230393059302A9024800F0CC
:10086C00BDFFE6E7002C01400008014010B586B042
:10087C00002302930393049305930268174B9A4247
:10088C0001D006B010BD03F558439A6942F480427A
:10089C009A619A6902F480420092009A9A6942F035
:1008AC0004029A619B6903F004030193019B4FF4CA
:1008BC00007302930223039303230593084C02A9AC
:1008CC00204600F08BFF4FF48063029300230393C8
:1008DC00049302A9204600F081FFD2E700380140C2
:1008EC000008014030B4036A23F001030362026A7A
:1008FC004568836923F073030C681C4322F00202E1
:10090C008B6813430B4A904206D0456084614A6859
:10091C004263036230BC704723F00803CA681A4371
:10092C0022F0040325F440754A692A438D69154366
:10093C00EBE700BF002C014030B4036A23F4807352
:10094C000362036A4468C26922F073020D6815439E
:10095C0023F400738A6843EA02230D4A904206D0BE
:10096C004460C5614A68C263036230BC704723F4BB
:10097C000063CA6843EA022323F4806324F44054DE
:10098C004A6944EA02148A6944EA0214E8E700BF9F
:10099C00002C014030B4036A23F480530362036AD1
:1009AC004468C26922F4E6420D6842EA052223F447
:1009BC0000538D6843EA0533074DA84206D04460C6
:1009CC00C2614A680264036230BC704724F48044FC
:1009DC004D6944EA8514F2E7002C014010B4036A17
:1009EC00046A24F001040462846924F0F00C4CEADB
:1009FC00021223F00A030B438261036210BC70479E
:100A0C0010B4036A23F0100303628469036A24F4AC
:100A1C00704C4CEA023223F0A00343EA01138261CA
:100A2C00036210BC7047836823F070030B4343F0E0
:100A3C000703836070477047704770477047704773
:100A4C00704710B5044603681A6912F0020F11D0F2
:100A5C00DA6812F0020F0DD06FF002021A61012356
:100A6C00037703689B6913F0030F70D0FFF7E6FF61
:100A7C000023237723681A6912F0040F12D0DA6866
:100A8C0012F0040F0ED06FF004021A6102232377C8
:100A9C0023689B6913F4407F5FD02046FFF7CEFF9D
:100AAC000023237723681A6912F0080F12D0DA6832
:100ABC0012F0080F0ED06FF008021A61042323778E
:100ACC002368DB6913F0030F4ED02046FFF7B6FF07
:100ADC000023237723681A6912F0100F12D0DA68FA
:100AEC0012F0100F0ED06FF010021A61082323774A
:100AFC002368DB6913F4407F3DD02046FFF79EFF4F
:100B0C000023237723681A6912F0010F03D0DA68E7
:100B1C0012F0010F36D123681A6912F0800F03D03E
:100B2C00DA6812F0800F34D123681A6912F0400F82
:100B3C0003D0DA6812F0400F32D123681A6912F030
:100B4C00200F03D0DA6812F0200F30D110BDFFF760
:100B5C0074FF2046FFF773FF8AE72046FFF76DFF0F
:100B6C002046FFF76CFF9BE72046FFF766FF204609
:100B7C00FFF765FFACE72046FFF75FFF2046FFF766
:100B8C005EFFBDE76FF001021A612046FFF754FFCC
:100B9C00C1E76FF080021A61204600F08DFAC3E7BE
:100BAC006FF040021A612046FFF74AFFC5E76FF06D
:100BBC0020021A61204600F07EFAC7E703681B4A40
:100BCC0090420AD0B0F1804F07D0A2F594329042F7
:100BDC0003D002F58062904203D123F070034A687F
:100BEC001343124A90420AD0B0F1804F07D0A2F5BD
:100BFC009432904203D002F58062904203D123F4E8
:100C0C004073CA68134323F080034A69134303609B
:100C1C008B68C3620B688362044B984202D0012339
:100C2C00436170470B690363F9E700BF002C014077
:100C3C0040B310B5044690F83D30F3B1022384F86C
:100C4C003D30214651F8040BFFF7B8FF012384F81F
:100C5C00463084F83E3084F83F3084F8403084F8D5
:100C6C00413084F8423084F8433084F8443084F8BE
:100C7C00453084F83D30002010BD80F83C30FFF743
:100C8C008FFDDBE70120704740B310B5044690F8A8
:100C9C003D30F3B1022384F83D30214651F8040B6A
:100CAC00FFF78CFF012384F8463084F83E3084F83B
:100CBC003F3084F8403084F8413084F8423084F876
:100CCC00433084F8443084F8453084F83D300020BB
:100CDC0010BD80F83C30FFF7AEFEDBE7012070471B
:100CEC0030B4036A23F010030362036A4468826918
:100CFC0022F4E6420D6842EA052223F020038D68B7
:100D0C0043EA05130C4DA84206D0446082614A6840
:100D1C008263036230BC704723F08003CD6843EAE2
:100D2C00051323F0400324F440644D6944EA850420
:100D3C008D6944EA8504E8E7002C014038B590F849
:100D4C003C30012B60D004460D46012380F83C302A
:100D5C000C2A1AD8DFE802F0071919191D191919EC
:100D6C003119191944000068FFF7BCFD226893691A
:100D7C0043F0080393612268936923F004039361A1
:100D8C002268936929690B439361002084F83C0025
:100D9C0038BD0068FFF7A4FF2268936943F4006331
:100DAC0093612268936923F4806393612268936949
:100DBC00296943EA01239361E7E70068FFF7BCFD6B
:100DCC002268D36943F00803D3612268D36923F006
:100DDC000403D3612268D36929690B43D361D4E737
:100DEC000068FFF7D7FD2268D36943F40063D36131
:100DFC002268D36923F48063D3612268D36929699B
:100E0C0043EA0123D361C0E70220C1E710B4846830
:100E1C0024F47F4C42EA03220A4342EA0C02826029
:100E2C0010BC704790F83C30012B66D010B50446CE
:100E3C00012380F83C30022380F83D30026893682F
:100E4C0023F47F4323F0770393600B68602B40D02F
:100E5C0022D8402B47D00BD9502B0ED1CA684968E9
:100E6C000068FFF7BBFD50212068FFF7DCFD04E0B4
:100E7C00202B0CD008D9302B09D0012384F83D301D
:100E8C00002084F83C0010BD0BB1102BF5D1194695
:100E9C002068FFF7C8FDF0E7702B0ED0B3F5005FAC
:100EAC00EBD1CB684A6889680068FFF7AFFF22680E
:100EBC00936843F480439360DFE7CB684A688968A2
:100ECC000068FFF7A3FF2268936843F077039360F1
:100EDC00D3E7CA6849680068FFF792FD6021206873
:100EEC00FFF7A1FDC9E7CA6849680068FFF776FDFE
:100EFC0040212068FFF797FDBFE70220704701F003
:100F0C001F014FF0010C0CFA01FC036A23EA0C03DD
:100F1C000362036A8A4013430362704710B50446A8
:100F2C00084651BB94F83E30DBB2013B18BF01239D
:100F3C00002B5BD1002839D1022384F83E300122EA
:100F4C0001462068FFF7DBFF23682A4A93423DD015
:100F5C002368284A93423ED0B3F1804F3BD0A2F590
:100F6C009432934237D002F58062934233D01A68A0
:100F7C0042F001021A60002039E0042908D0082947
:100F8C000DD094F84130DBB2013B18BF0123CFE701
:100F9C0094F83F30DBB2013B18BF0123C8E794F84B
:100FAC004030DBB2013B18BF0123C1E7042805D058
:100FBC00082807D0022384F84130C0E7022384F8C4
:100FCC003F30BCE7022384F84030B8E75A6C42F457
:100FDC0000425A64BCE79A6802F00702062A07D05E
:100FEC001A6842F001021A60002000E0012010BDD6
:100FFC000020FCE7002C014090F83C20012A2CD06A
:10100C0010B40346012280F83C20022280F83D20D7
:10101C0002685068946820F0700C086840EA0C0074
:10102C0050601A680E4882420AD0B2F1804F07D045
:10103C00A0F59430824203D000F58060824204D146
:10104C0024F08004496821439160012283F83D20FB
:10105C00002083F83C0010BC70470220704700BF92
:10106C00002C0140024690F83C30012B21D001238A
:10107C0080F83C30CB6823F440738868034323F436
:10108C0080634868034323F400630868034323F434
:10109C0080530869034323F400534869034323F442
:1010AC008043C9690B4311684B64002082F83C00F3
:1010BC0070470220704770477047000010B5044617
:1010CC000E4B1A784FF47A73B3FBF2F30C4A106898
:1010DC00B0FBF3F000F0D2FD68B90F2C01D9012060
:1010EC000AE0002221464FF0FF3000F0A9FD054B2D
:1010FC001C60002000E0012010BD00BF000000209B
:10110C00080000200400002008B5074A136843F0CB
:10111C0010031360032000F081FD0F20FFF7CEFFBA
:10112C00FFF726FB002008BD00200240034A11688F
:10113C00034B1B780B441360704700BFFC0000206E
:10114C0000000020014B1868704700BFFC00002015
:10115C0038B50446FFF7F6FF0546B4F1FF3F02D061
:10116C00044B1B781C44FFF7EDFF401BA042FAD345
:10117C0038BD00BF0000002082B0084B1B68084A35
:10118C00A2FB03235B0A00FB03F3019300BF019B4B
:10119C005A1E0192002BF9D102B0704708000020B2
:1011AC00D34D6210002800F0F18170B582B0044676
:1011BC00036813F0010F2CD0994B5B6803F00C0300
:1011CC00042B1DD0964B5B6803F00C03082B12D03C
:1011DC006368B3F5803F41D0002B55D103F18043B8
:1011EC0003F504331A6822F480321A601A6822F468
:1011FC0080221A6037E08A4B5B6813F4803FE7D09B
:10120C00874B1B6813F4003F03D06368002B00F07E
:10121C00BF81236813F0020F75D0814B5B6813F00C
:10122C000C0F5FD07E4B5B6803F00C03082B54D083
:10123C002369002B00F08A807A4B01221A60FFF799
:10124C0081FF0546764B1B6813F0020F75D1FFF733
:10125C0079FF401B0228F5D903209EE1704A1368E0
:10126C0043F480331360636843B3FFF76BFF0546A9
:10127C006B4B1B6813F4003FCBD1FFF763FF401B94
:10128C006428F5D9032088E1B3F5A02F09D0644B6D
:10129C001A6822F480321A601A6822F480221A60CA
:1012AC00E1E703F18043A3F53C331A6842F4802252
:1012BC001A601A6842F480321A60D4E7FFF742FFD2
:1012CC000546574B1B6813F4003FA2D0FFF73AFFBB
:1012DC00401B6428F5D903205FE1514B5B6813F484
:1012EC00803FA5D14E4B1B6813F0020F03D023692E
:1012FC00012B40F04F814A4A136823F0F8036169CF
:10130C0043EAC1031360236813F0080F33D0A369B9
:10131C00002B5CD0434B0122C3F88024FFF712FF53
:10132C0005463F4B5B6A13F0020F21D1FFF70AFF12
:10133C00401B0228F5D903202FE1394A136823F00A
:10134C00F803616943EAC1031360DCE7354B002203
:10135C001A60FFF7F7FE0546314B1B6813F0020FBE
:10136C00D1D0FFF7EFFE401B0228F5D9032014E182
:10137C000120FFF701FF236813F0040F00F09680A3
:10138C00274BDB6913F0805F34D1254BDA6942F0CF
:10139C008052DA61DB6903F080530193019B0125D4
:1013AC00214B1B6813F4807F26D0E368012B3DD0C2
:1013BC00002B53D103F1804303F504331A6A22F056
:1013CC0001021A621A6A22F004021A6233E0154B07
:1013DC000022C3F88024FFF7B5FE0546104B5B6A6C
:1013EC0013F0020FC7D0FFF7ADFE401B0228F5D952
:1013FC000320D2E00025D3E70B4A136843F4807333
:10140C001360FFF79FFE0646074B1B6813F4807FA3
:10141C00CBD1FFF797FE801B6428F5D90320BCE0E5
:10142C000010024000004242007000405F4A136A04
:10143C0043F001031362E36833B3FFF783FE064600
:10144C005A4B1B6A13F0020F2FD1FFF77BFE801B48
:10145C0041F288339842F3D903209EE0052B09D042
:10146C00524B1A6A22F001021A621A6A22F0040222
:10147C001A62E0E74D4B1A6A42F004021A621A6AC9
:10148C0042F001021A62D6E7FFF75CFE0646474BB4
:10149C001B6A13F0020F08D0FFF754FE801B41F2B9
:1014AC0088339842F3D9032077E0E5B9E369002B40
:1014BC0072D03E4A526802F00C02082A56D0022B17
:1014CC0017D03B4B00221A66FFF73CFE0446374B05
:1014DC001B6813F0007F47D0FFF734FE001B022877
:1014EC00F5D9032059E0314AD36923F08053D361F5
:1014FC00DCE72F4B00221A66FFF724FE05462B4B28
:10150C001B6813F0007F06D0FFF71CFE401B02285F
:10151C00F5D9032041E0236AB3F5803F1AD0234963
:10152C004B6823F47413226A606A024313434B60C2
:10153C001F4B01221A66FFF705FE04461B4B1B6866
:10154C0013F0007F0ED1FFF7FDFD001B0228F5D92B
:10155C00032022E0154A536823F40033A1680B439F
:10156C005360DCE7002018E0002016E0012B16D0B9
:10157C000E4B5B6803F48031226A914211D103F463
:10158C007013626A93420ED1002006E0012070476E
:10159C00012002E0012000E0002002B070BD01201B
:1015AC00FBE70120F9E70120F7E700BF001002403C
:1015BC000000424286B0174B0FCB0DF1180C0CE912
:1015CC000F0040F20123ADF80430134B5B6803F0BD
:1015DC000C02082A02D0114806B07047C3F38342AC
:1015EC0018326A4412F8100C13F4803F0DD00A4BD9
:1015FC005B68C3F3404318336B4413F8143C074A3D
:10160C0002FB00F0B0FBF3F0E6E7054B03FB00F048
:10161C00E2E700BFB01F00080010024000127A0081
:10162C0000093D00002800F0A08070B50D4604466E
:10163C00524B1B6803F007038B420BD24F4A1368C3
:10164C0023F007030B431360136803F007038B426B
:10165C0040F08D80236813F0020F17D013F0040FA5
:10166C0004D0474A536843F4E0635360236813F093
:10167C00080F04D0424A536843F460535360404A05
:10168C00536823F0F003A1680B435360236813F0F5
:10169C00010F31D06368012B20D0022B25D0384AA2
:1016AC00126812F0020F64D035494A6822F0030226
:1016BC0013434B60FFF746FD0646314B5B6803F066
:1016CC000C036268B3EB820F16D0FFF73BFD801B57
:1016DC0041F288339842F0D9032045E0284A126839
:1016EC0012F4003FE0D101203EE0254A126812F0CE
:1016FC00007FD9D1012037E0204B1B6803F0070392
:10170C00AB420AD91D4A136823F007032B4313601D
:10171C00136803F00703AB422DD1236813F0040FB9
:10172C0006D0174A536823F4E063E1680B43536017
:10173C00236813F0080F07D0114A536823F4605341
:10174C00216943EAC1035360FFF734FF0C4B5B681C
:10175C00C3F303130B4AD35CD8400B4B18600B4BF1
:10176C001868FFF7ABFC002070BD0120704701200A
:10177C00FAE70120F8E70120F6E700BF002002405D
:10178C0000100240CC1F00080800002004000020BC
:10179C00014B1868704700BF0800002008B5FFF720
:1017AC00F7FF044B5B68C3F30223034AD35CD840B6
:1017BC0008BD00BF00100240C41F000808B5FFF7A9
:1017CC00E7FF044B5B68C3F3C223034AD35CD840E6
:1017DC0008BD00BF00100240C41F000870B582B0E5
:1017EC000024A446A2E07E4DAB4210D007D97D4D1B
:1017FC00AB420CD005F58035AB4208D013E0A5F513
:10180C008015AB4203D005F57025AB4207D18B6830
:10181C00002B55D0012B4ED04261082403E0A5F5D6
:10182C008015AB42F3D0BEF1FF0F4BD806464FEA02
:10183C008C0233680F25954023EA050304FA02F263
:10184C00134333604B6813F0805F6DD0664B9A691D
:10185C0042F001029A619B6903F001030193019B21
:10186C004FEA9C02951C614B53F825600CF0030564
:10187C00AD000F23AB4026EA03065D4B984228D0FF
:10188C0003F58063984200F08D8003F580639842E5
:10189C0000F08A8003F58063984218D0042319E085
:1018AC00CC68C0E7CC680434BDE7CC680834BAE730
:1018BC00CC680C34B7E702610824B4E70024B2E723
:1018CC000424B0E7061DACF108029200B1E7032333
:1018DC0000E00023AB4033430232444D45F8223044
:1018EC004B6813F4803F61D0424A136843EA0E03FD
:1018FC0013604B6813F4003F5ED03E4A536843EAD2
:10190C000E0353604B6813F4801F5BD0394A936805
:10191C0043EA0E0393604B6813F4001F58D0354A0A
:10192C00D36843EA0E03D3600CF1010C0B6833FA55
:10193C000CF253D0012202FA0CF203EA020E32EA44
:10194C000303F1D14B68122B3FF64DAF122B3FF630
:10195C006AAF01A555F823F01B180008AD18000854
:10196C00B7180008C9180008331800083318000805
:10197C00331800083318000833180008331800080F
:10198C0033180008331800083318000833180008FF
:10199C00331800083318000833180008B118000871
:1019AC00BD180008012395E7022393E7114A136839
:1019BC0023EA0E0313609CE70E4A536823EA0E03D6
:1019CC0053609FE70B4A936823EA0E039360A2E7E8
:1019DC00084AD36823EA0E03D360A5E702B070BDB2
:1019EC0000002210000031100010024000000140E5
:1019FC0000080140000401400AB10161704709046C
:101A0C000161704760B310B402460168154B0B447A
:101A1C001548A0FB03031B099B001364134BD363F2
:101A2C00022382F82130086820F47F5020F0300027
:101A3C00536894682343D46823431469234354693B
:101A4C00234394692343D469234303430B6000204D
:101A5C009063012382F8213082F8200010BC70477B
:101A6C0001207047F8FFFDBFCDCCCCCC000002406C
:101A7C0038B5C36B1A6804682568016C04238B4065
:101A8C00134235D015F0040F32D0236813F0200F19
:101A9C0003D1236823F0040323600368434A934271
:101AAC0014D01432934218D01432934217D01432FB
:101ABC00934217D01432934217D01432934202D06F
:101ACC004FF0806203E04FF4800200E00422384BB8
:101ADC005A60C36A03B1984738BD4022F7E74FF408
:101AEC008062F4E74FF48042F1E74FF48022EEE796
:101AFC0002238B4013423CD015F0020F39D02368DF
:101B0C0013F0200F06D1236823F00A03236001236E
:101B1C0080F821300368254A934214D01432934242
:101B2C001CD0143293421BD0143293421BD014326B
:101B3C0093421BD01432934202D04FF0007203E058
:101B4C004FF4001200E00222194B5A60002380F877
:101B5C002030836A002BBFD09847BDE72022F3E7E3
:101B6C004FF40072F0E74FF40052EDE74FF40032FF
:101B7C00EAE708238B401342AED015F0080FABD028
:101B8C00236823F00E032360026CC16B012303FA5C
:101B9C0002F24A60836380F82130002380F8203001
:101BAC00036B002B98D0984796E700BF08000240C3
:101BBC0000000240002808DB0901C9B200F16040B6
:101BCC0000F5614080F80013704700F00F00090128
:101BDC00C9B2014B1954704714ED00E000B500F088
:101BEC000700C0F1070CBCF1040F28BF4FF0040C28
:101BFC00031D062B0FD9C31E4FF0FF3E0EFA0CF03F
:101C0C0021EA000199400EFA03FE22EA0E0241EA93
:101C1C0002005DF804FB0023EEE70000074AD368DE
:101C2C0023F4E0631B041B0C000200F4E06003438C
:101C3C0043F0BF6343F40033D360704700ED00E022
:101C4C0010B50446054BD868C0F30220FFF7C6FF59
:101C5C0001462046FFF7AEFF10BD00BF00ED00E0CF
:101C6C00002807DB00F01F02400901239340024AC1
:101C7C0042F82030704700BF00E100E00138B0F1BD
:101C8C00807F0BD24FF0E0235861054AF02182F897
:101C9C0023100020986107221A61704701207047B9
:101CAC0000ED00E07047000010B5044602681369AF
:101CBC0023F44053C1680B431361836802691343D7
:101CCC0042691A430168CB6823F4B05323F00C0328
:101CDC001343CB600268536923F4407381690B434F
:101CEC0053610268134B9A4220D0FFF757FD02460E
:101CFC0002EB820202EB820263689B00B2FBF3F2FE
:101D0C000D48A0FB02314909642303FB11231B017D
:101D1C003233A0FB03035B0903F0F00202EB011268
:101D2C0003F00F03216813448B6010BDFFF746FDD1
:101D3C000246DDE7003801401F85EB512DE9F843E1
:101D4C0005460F4616469946DDF820802B681C6820
:101D5C0037EA04040CBF01240024B4421FD1B8F1AB
:101D6C00FF3FF3D0B8F1000F05D0FFF7EBF9A0EB74
:101D7C0009004045EAD92A68D36823F4D073D360AC
:101D8C002A68536923F001035361202385F83D3001
:101D9C0085F83E30002385F83C30032000E000201D
:101DAC00BDE8F88358B310B5044690F83D300BB33A
:101DBC00242384F83D302268D36823F40053D36085
:101DCC002046FFF771FF2268136923F490431361D7
:101DDC002268536923F02A0353612268D36843F4C1
:101DEC000053D36000202064202384F83D3084F815
:101DFC003E3010BD80F83C30FEF738FDD8E70120AE
:101E0C0070472DE9F04182B01E4690F83E30DBB2AF
:101E1C00202B5CD104460D46904600295BD0002A4D
:101E2C005BD090F83C30012B59D0012380F83C302A
:101E3C0000230364222280F83E200363FFF782F91B
:101E4C000746A4F82C80A4F82E80A368B3F5805F15
:101E5C0005D04FF00008002384F83C3017E02369CC
:101E6C0013B14FF00008F6E7A8460025F3E7236806
:101E7C005B68C3F3080328F8023B03E023685B6844
:101E8C002B700135E28D92B2013A92B2E285E38D6C
:101E9C009BB2BBB100963B46002220212046FFF7A7
:101EAC004DFFF0B9002DE2D0A368B3F5805FE5D00B
:101EBC0013B92369002BE1D023685B6803F07F031F
:101ECC002B70DEE7202384F83E30002000E0022057
:101EDC0002B0BDE8F0810120FAE70120F8E702200A
:101EEC00F6E70320F4E700000C480D490D4A0023E7
:101EFC0002E0D458C4500433C4188C42F9D30A4AB3
:101F0C000A4C002301E013600432A242FBD3FFF71A
:101F1C00C9FE00F00FF8FEF7E7FB70470000002049
:101F2C000C000020E41F00080C0000200001002021
:101F3C00FEE7000070B500260C4D0D4C641BA41080
:101F4C00A64209D100F022F800260A4D0A4C641B67
:101F5C00A410A64205D170BD55F8043B9847013634
:101F6C00EEE755F8043B98470136F2E7DC1F000812
:101F7C00DC1F0008DC1F0008E01F000803460244B9
:101F8C00934200D1704703F8011BF9E7F8B500BF85
:101F9C00F8BC08BC9E467047F8B500BFF8BC08BC3E
:041FAC009E46704796
:101FB00002030405060708090A0B0C0D0E0F10108A
:101FC0000000000000000000010203040000000007
:0C1FD000000000000102030406070809DD
:041FDC0031010008C7
:041FE0000D010008E7
:0C1FE40001000000100000000024F400C8
:0400000508001EF5DC
:00000001FF
